:020000040800F2
:100000000000012009000008DFF81400016841F435
:100010007001016072B60348804703480047000042
:1000200088ED00E0296200082D000008DFF80CD000
:1000300000F0A6FD00480047CD9E0008000001200A
:1000400072B634483449026841EA0201016033481B
:100050004FF00101016032484168016001688A88FF
:100060004FF0100342EA03028A80D1F800C00CF17D
:10007000240C0CF1040CBCE8FF008CF309884FF051
:10008000020C8CF31488AE4662B63047EFF3108052
:1000900072B67047EFF3108062B6704780F3108835
:1000A000704720484FF0805101607047EFF3108C8B
:1000B00072B61D4A126822B12DE900509047BDE882
:1000C0000050EFF309801EF0100F08BF20ED108BD9
:1000D00040F804ED20E9F01F114D4FF010082E6894
:1000E0003060B78827EA0807B78068682860878883
:1000F00047EA08078780016800F018B851F804EB58
:100100001EF0100F08BF00F016B881F309888CF3B9
:100110001088704720ED00E00000FFFFD0040020B1
:100120009804002004ED00E0D404002030C9B1E8B8
:10013000C01FFFF7E3BFB1EC088BB1EC08CBFFF7B2
:10014000E4BF2DE9F05F0546002092469B468846B5
:100150000646814640241BE0284641464746224643
:1001600000F016FC53465A46C01A914110D311466E
:100170001846224600F019F82D1A67EB01084F4681
:1001800022460120002100F010F817EB00094E4133
:10019000201EA4F10104DFDC484631462A464346CE
:1001A00000F000B830BCBDE8C09F202A04DB203A34
:1001B00000FA02F1002070479140C2F1200320FABA
:1001C00003F319439040704700487047F4930108C7
:1001D00010B50446FFF7F8FF0068005D00F001006D
:1001E00010BDA0F16101192900D82038704710B561
:1001F000441A0346944209D28418114403E011F8CA
:10020000013D04F8013D521EF9D210BD40EA01043F
:10021000A40703D009E010C9121F10C3042AFAD2A0
:1002200003E011F8014B03F8014B521EF9D210BD47
:10023000D2B201E000F8012B491EFBD27047002228
:10024000F6E710B513460A4604461946FFF7F0FFD5
:10025000204610BD30B505462A460B4612F8010B64
:1002600013F8014B08B1A042F8D01CB1002802D00D
:100270006D1CF1E7284630BD10B5044604E00B784C
:1002800000F8013B03B1491C521EF8D2204610BDB4
:10029000421C10F8011B0029FBD1801A704710B5D1
:1002A000002200E0521C835C8C5CA34201D1002B35
:1002B000F8D1D8B2E1B2401A10BD30B504460020E2
:1002C000034600E05B1C934203D2E05CCD5C401B24
:1002D000F8D030BD30B505460020034600E05B1C79
:1002E000934205D2EC5CC85C201A01D1002CF6D1F7
:1002F00030BD00000FB400B58DB010A909900B906F
:1003000000914FF0FF300A9000200C9005480690B5
:10031000054807906A4609A80F9900F06FFB0DB0D9
:100320005DF814FB190A0008370A00082DE9FF5F81
:100330001D464FF0FF3BD5E9014691465F464FF021
:100340000008A9697F1C01988847296A8246884766
:100350000028F6D1BAF1FF3F0CD024F4C064002E7F
:1003600019DD600614D5BAF12B0F09D0BAF12D0FA3
:100370000ED103E0584604B000F07EB844F4806427
:10038000A9697F1C01988847761E8246002E02DDEF
:10039000BAF1300F03D0B9F1000F26D032E0A969CD
:1003A000761E44F400747F1C019888478246002E14
:1003B00005DDBAF1780F06D0BAF1580F03D0B9F1C4
:1003C000000F10D01EE0B9F1000F02D0B9F1100FEC
:1003D00018D1A969761E24F400747F1C01988847FF
:1003E0008246102002E0082000E00A20814609E051
:1003F00008FB0908A969761E44F400747F1C019863
:1004000088478246002E05DD4946504600F0E2FA54
:100410000028EDDAE96901988847A00502D46FF059
:100420000100A8E7E00725D1600613D5600502D5D5
:10043000C8F1000000E0404629680A1D2A600968EA
:10044000220501D5087015E0220701D5088011E0CA
:1004500008600FE02868011D29600068210502D5A9
:1004600080F8008006E0210702D5A0F8008001E0B6
:10047000C0F8008038467EE730BCBDE8C09F2DE95B
:10048000FF5FD2E901A74FF0000891699946144631
:10049000DDF838B0464601988847054659EA0B0012
:1004A00005D009E0A169761C019888470546216AB4
:1004B000284688470028F5D1681C03D05FEACA7037
:1004C00005D015E04FF0FF3004B000F048B82068C8
:1004D000011D2160D0F800800AE05FEACA7001D1F6
:1004E00008F8015BA169761C7F1E019888470546C4
:1004F000002F1ADD681C18D0B9F1000F0DD0E817D5
:1005000005EBD060421120F01F0059F822102A1A82
:10051000012090400142E0D107E0BBF1000FDCD1A7
:10052000216A284688470028D7D0E1690198884782
:10053000BBF1000F07D1002E05DD5FEACA7002D1C2
:10054000002188F80010A068B84203DDBBF1000F5D
:1005500003D017B16FF00100B6E73046B4E730BC06
:10056000BDE8C09F2DE9FE4F804681EA0300C00F21
:100570000C46009021F0004123F00045B8EB02004A
:10058000A94105D24046214690461C460B460246EC
:1005900023F00040104347D0270DC7F30A00C3F3F0
:1005A0000A510290401A019040286BDAC3F31300FD
:1005B00040F4801B0098924620B10023D2EB030A3E
:1005C00063EB0B0B01985946C0F140025046FFF710
:1005D000ECFD06460D4650465946019A00F0E8F9F2
:1005E00010EB08006141002487EA115284EAE773A6
:1005F0001A4340D0009A62B3019A012A4FEA075287
:1006000015DC001B61EB02014FF0004202EA0752C9
:10061000CDE90042001C41F5801132462B4600F026
:1006200061FA03B000F045B840462146F9E7001BE7
:1006300061EB0201001C41F5801300185B4120189A
:10064000A2F5001747EB030140EAD570B6196D41DA
:1006500011E06D084FEA360645EAC0754FEA0752C9
:10066000001B61EB0201001C41F5801149084FEAB3
:1006700030000019514132462B4603B000F01CB83F
:1006800000F021BA0098012240000023D0EB0202C2
:1006900063EBE073009821464FEAE074B8EB00008A
:1006A00061EB0401E9E783F000435BE781F000417F
:1006B00058E730BCBDE8C08F30BCBDE8C04FFFF785
:1006C000DFBF2DE9FE4F81EA030404F0004421F06E
:1006D000004100944FF0000B23F0004350EA010466
:1006E0005ED052EA03045BD0C3F30A54C1F30A5547
:1006F0002C44A4F2F3340194A0FB0254C1F313017F
:1007000041F48011C3F3130343F4801301FB02444B
:1007100000FB034E840A970A44EA815447EA835750
:10072000A4FB076802958D0A05FB07854FEA932C09
:1007300004FB0C542705029D4FEA065847EA16377A
:10074000B5EB08056EEB070C870E920E47EA811792
:1007500042EA8312A7FB0201B6EB0B0164EB000433
:100760002B0D43EA0C335E1844EB1C50DA4651461D
:10077000E7FB0201C5F313044FEA0B3343EA1453BA
:100780004FEA0432019C43EA0603A4F10C040294EC
:10079000009CCDE900B400F0A5F903B000F003B867
:1007A00000200146F9E730BCBDE8C08F2DE9F04DCF
:1007B00081EA030404F0004B21F0004514464FF099
:1007C000000A23F0004150EA050220D054EA010259
:1007D0001DD0C5F30A570246C5F31303C1F3130036
:1007E000C1F30A5640F4801543F48013A7EB0608C2
:1007F000101BD64608F2FD3873EB050002D308F152
:10080000010801E092185B41B8F1000F03DA002003
:100810000146BDE8F08D00204FF480110646844665
:100820000EE0171B73EB050705D3121B63EB0503E3
:1008300006434CEA010C49084FEA300092185B412C
:1008400050EA0107EDD152EA030012D082EA040017
:1008500083EA0501084305D0101BAB4106D20122F3
:10086000002306E000224FF0004302E06FF0010297
:1008700053101AEB06004CEB085110EB0A0041EB49
:100880000B01BDE8F04D00F01EB90EB540F233414A
:1008900002910021CDE900110A460B4600F022F931
:1008A00003B000BDC1F30A52C1F3130140F2FF339C
:1008B00041F480119A4202DA00200146704740F26A
:1008C00033439A42A2F2334202DC524200F060B853
:1008D000FFF76BBC00F0004230F000400AD0C10DC1
:1008E00001F56071C0F3160042EA0151C2084007E9
:1008F00011437047002001467047000030B5041EC8
:1009000071F1000404DB4FF00044404264EB01014C
:10091000141E73F1000405DB1C464FF000435242E5
:1009200063EB0403994208BF904230BD01F00043DD
:1009300030B421F0004150EA010206D00A0DA2F5C0
:100940006072C1F31301002A02DC30BC0020704742
:10095000440F44EAC104C100E01830BC00EBC250AF
:1009600000F07AB830B50B46014600202022012461
:1009700009E021FA02F59D4205D303FA02F5491B6D
:1009800004FA02F52844151EA2F10102F1DC30BD83
:10099000202A04DB203A21FA02F00021704721FAD4
:1009A00002F3D040C2F1200291400843194670473B
:1009B000202A06DBCB17203A41FA02F043EAE07323
:1009C00006E041FA02F3D040C2F120029140084310
:1009D000194670473A2800D2303820F02002412AC8
:1009E00001D3A2F13700884201D34FF0FF307047A6
:1009F000026811441378016018467047D1600449B9
:100A000051610449116200211161114600F0CAB818
:100A1000F1090008D1010008426842B1016811F8EB
:100A2000013B23B1521EC0E9001218467047012154
:100A3000C160881E704742685AB1C368016843B9F3
:100A400083688B4205D0491E521CC0E90012002069
:100A500070474FF0FF3070470029A8BF7047401C17
:100A6000490008BF20F00100704710B4B0FA80FCC4
:100A700000FA0CF050EA010404BF10BC704749B101
:100A8000CCF1200421FA04F411FA0CF118BF012171
:100A900021430843A3EB0C01CB1D4FEA00614FEA51
:100AA000102042BF002010BC704700EBC350104420
:100AB0000029A4BF10BC7047401C490008BF20F0AB
:100AC000010010BC704710B5141E73F1000408DA61
:100AD000401C41F1000192185B411A4301D120F002
:100AE000010010BD2DE9F04D92469B4611B1B1FABF
:100AF00081F202E0B0FA80F220329046FFF755FB17
:100B000004460F4640EA0A0041EA0B0153465A46A2
:100B1000084313D0114653EA010019D0C8F140022E
:100B20005046FFF735FF05460E46504659464246A9
:100B3000FFF73BFB084305D0012004E0204639467F
:100B4000BDE8F08D0020054346EAE0762C433743AC
:100B50000A986305E40AA0EB08000022FD0A44EAB3
:100B600047540A3002D500200146E9E70105101973
:100B70006941DDE9084500196941BDE8F04DA2E78A
:100B8000064C074D06E0E06840F0010394E80700DA
:100B900098471034AC42F6D3FFF74CFAFC960108A4
:100BA0002C9701082DE9F34F8BB04FF0000801F1AD
:100BB0000C000C464FF0010B46460DF1080A01905F
:100BC0006269012101989047051E2DD0252D2CD05A
:100BD000216A8847C0B16269012101989047216A62
:100BE00088470028F7D1411E62690198904700E0CC
:100BF000761CA1690B988847216A88470028F7D19D
:100C0000E1690B988847DBE7A1690B98884707469D
:100C1000A84201D1761CD3E7E1690B9888477F1C75
:100C200002D1B8F1000F6FD046E1002762693D465E
:100C30003946019890472A2804D162690121019818
:100C400090470125DFF8849262690121019890475D
:100C5000A0F130010A290AD24F45E5DC07EB8701F4
:100C600000EB4107303FDFD445F01005ECE7E90623
:100C700001D46FF000476C280AD04C2814D06828A3
:100C800015D06A280DD074281CD07A281AD01DE0FF
:100C900062690121019890476C2802D045F0040553
:100CA00014E045F002050DE045F020050AE0626918
:100CB000012101989047682802D045F0080505E019
:100CC00045F400656269012101989047C4E9015724
:100CD00065283DD019DC58287AD00CDC452837D05F
:100CE00004DC252826D0412831D131E046282FD0F8
:100CF00047282CD12CE05B2877D0612828D06328A6
:100D00007CD0642823D15AE0D0E06F2848D008DC9A
:100D100066281DD067281BD0692821D06E2816D1DF
:100D200027E0702845D0732868D0752847D07828E8
:100D30000DD14DE0A1690B988847054625283FF461
:100D400069AFE1690B9888476D1C3FF46AAFB3E067
:100D500023466A466FF001000B99AFF300809EE0D6
:100D600045F040006060A80723464FF0000236D4EB
:100D70003EE0E8077FF447AF2068011D216000686E
:100D8000290501D506701BE7290701D5068017E75D
:100D9000A90703D5F117C0E9006111E706600FE765
:100DA00045F040006060A80723464FF0080216D4C3
:100DB0001EE040F60E0125EA0100606016E045F0F5
:100DC00040006060A80723464FF00A0207D40FE0F6
:100DD00045F040006060A80708D5234610226FF058
:100DE00001000B99AFF3008059E007E02346102281
:100DF0006FF001000B99FFF799FA50E04FF00009EE
:100E00004F464B46632802D05B2806D040E0E806F8
:100E100001D40120A06001273AE062690121019814
:100E200090475E2805D14FF0010962694946019853
:100E30009047216939B900210A46534643F82120D9
:100E4000491C0829FADBB0B3216969B9C11700EB65
:100E5000D16253110AEB830122F01F02821A012092
:100E60000B68904003430B60626901210198904731
:100E70005D28E8D1B9F1000F09D00020514651F8A2
:100E80002020D24341F82020401C0828F7DB02AB89
:100E9000224600976FF001000B99FFF7F0FA002847
:100EA0000CDA401C08D1BBF1000F05D04FF0FF3029
:100EB0000DB000F00DB8FFE74046F9E7E90701D1B2
:100EC00008F1010806444FF0000B79E6CCCCCC0CBD
:100ED00030BCBDE8C08F70B58C1810F8015B15F000
:100EE000070301D110F8013B2A1106D110F8012B9C
:100EF00003E010F8016B01F8016B5B1EF9D12B07C1
:100F000005D40023521E0DD401F8013BFAE710F876
:100F1000013BCB1A921C03E013F8015B01F8015B63
:100F2000521EF9D5A142D8D3002070BD01484068B7
:100F300070470000001000E02DE9F0410746002650
:100F4000052000F0B1FA01F011F81049B0FBF1F002
:100F500000FB07F800BFFFF7E9FF054611E0FFF7C8
:100F6000E5FF0446AC420CD0AC4202D9601B0644FB
:100F700003E0C5F1FF30204406442546464500D332
:100F800000E0ECE700BFBDE8F081000040420F0048
:100F900000B587B000BF0C48C06C40F004000A499F
:100FA000C8640846C06C00F00400019000BF00BF98
:100FB00010200290012003900220059002A903480E
:100FC00000F070F907B000BD0010024000040048B6
:100FD00010B5FFF7DDFF01221021024800F050FAA2
:100FE00010BD00000004004800B585B0102000903E
:100FF000002001906946024800F054F905B000BD98
:101000000004004800B585B0102000900120019038
:10101000022003906946024800F044F905B000BD83
:101020000004004870B50025002424E000BF102112
:10103000134800F01DFA0028F9D02820FFF77CFFA4
:1010400010210F4800F014FA01280DD100BF102123
:101050000B4800F00DFA0128F9D0C4F10701012076
:101060008840C0B2054304E0C4F107010120884074
:101070008543601CC4B2082CD8DB284670BD000034
:101080000004004810B50446204600F001F810BDE9
:1010900010B50446FFF7B6FF00221021254800F0E6
:1010A000EFF944F25060FFF747FF01221021214879
:1010B00000F0E6F91E20FFF73FFFFFF795FF102134
:1010C0001C4800F0D5F978BB00BF1021194800F08A
:1010D000CFF90028F9D000BF1021164800F0C8F958
:1010E0000128F9D0FFF79EFF2070FFF79BFF60708B
:1010F000FFF798FFA070FFF795FFE070FFF792FFF2
:101100002071FFF77FFF012210210A4800F0B8F993
:10111000207861780844A1780844E178084421796E
:10112000884202D1012010BD01E00020FBE7002031
:10113000F9E700000004004810B50446012C03D173
:101140000021044801F0F4FE1CB90021014801F01F
:101150002DFF10BD4420002010B54FF47A721249C3
:10116000124802F029F91049114804F00BFB10480D
:10117000D0F8050000EE100AB8EE400ADFED0D0AC7
:1011800080EE201A0C4880ED001A0948006800EE35
:10119000100AB8EE400ADFED070A80EE201A064872
:1011A00080ED011A10BD00005A1C0020E80B002041
:1011B000501C00200050C347580A002008B504F016
:1011C000B7FA00200C4B024607210090272002F0BE
:1011D000D3FEC823142209A10E4802F05EF9C823E9
:1011E00014220DA10B4802F058F9C823142210A1B3
:1011F000084802F052F908BD696D00082443434DC8
:1012000053472C4747412C312C302C2A31390D0AB9
:1012100000000000E80B00202443434D53472C47B7
:1012200053412C312C302C2A30440D0A0000000090
:101230002443434D53472C4753562C312C302C2AF2
:1012400031410D0A0000000070B50446002594F8F5
:101250002500022803D00420E063012520E0206857
:10126000006820F00E00216808602068006820F007
:1012700001002168086094F8440000F01C0101207E
:101280008840216C4860012084F8250000BF0020C0
:1012900084F8240000BFA06B10B12046A16B8847E2
:1012A000284670BD78B50346002200240020CBE01C
:1012B000012696400D6805EA0604002C72D04D68A0
:1012C000022D02D04D68122D13D1D60803F120054E
:1012D00055F826005507EE0E0F25B540A8435607D2
:1012E000F60E0D69B5402843D60803F1200545F8F0
:1012F0002600186856000325B540A8430D7905F06F
:1013000003055600B540284318604D68012D08D0EC
:101310004D68022D05D04D68112D02D04D68122D5B
:1013200013D1986856000325B540A8435600CD68F0
:10133000B54028439860586801259540A8430D7929
:10134000C5F30015954028435860D868560003251A
:10135000B540A84356008D68B5402843D8604D6815
:1013600005F08055B5F1805F6DD100BF394D2D6E10
:1013700045F00105374E356635462D6E05F0010501
:10138000009500BF00BF4FEAB635960855F8260015
:1013900095072E0F0F25B540A843B3F1904F02D10A
:1013A000002515E04FE02C4DAB4201D101250FE0A7
:1013B0002A4DAB4201D102250AE0294DAB4201D1B1
:1013C000032505E0274DAB4201D1042500E00725A8
:1013D0009607360FB5402843234D960845F826005A
:1013E000224D2868A0434D6805F48035B5F5803F4F
:1013F00000D120431D4D28602D1D2868A0434D6855
:1014000005F40035B5F5003F00D12043174D2D1DE3
:1014100028602D1D2868A0434D6805F48015B5F59A
:10142000801F00D12043114D083528602D1D2868EC
:10143000A0434D6805F40015B5F5001F00D1204309
:101440000A4D0C352860521C0D68D540002D7FF4E4
:101450002FAF78BD0010024000040048000800488B
:10146000000C004800100048080001400004014042
:10147000024613690B400BB1012000E000207047C9
:101480000AB1816100E08162704710B503F0E8FFA6
:1014900010BD10B5032000F06FF8002000F004F834
:1014A00000F018F8002010BD01460848006840F020
:1014B0008070064A10600020054A5060104600689F
:1014C00040F001001060002070470000FCED00E0DB
:1014D000001000E0704701460846002809DB00F0D4
:1014E0001F0301229A4043099B0003F1E023C3F844
:1014F000002100BF70472DE9F05F80460D4616467B
:10150000002705F08DFC074639462A46334601F090
:101510000700C0F1070ABAF1040F02D94FF0040A1C
:1015200001E0C0F1070AD14600F1040ABAF1070F41
:1015300002D24FF0000A01E0A0F1030AD4464FF0B6
:10154000010A0AFA09FAAAF1010A0AEA020A0AFADF
:101550000CFA4FF0010B0BFA0CFBABF1010B0BEA91
:10156000030B4AEA0B042146404605F061FC00F0FB
:1015700000B830BCBDE8C09F00BF00F00702064BBA
:1015800019684FF6FF031940044B0B4343EA02214D
:10159000014B196000BF70470CED00E00000FA0538
:1015A00000BF00BF00BF00BF00BFBFF34F8F00BF31
:1015B00000BF00BF0948006800F4E0600849084324
:1015C000001D0649086000BF00BF00BFBFF34F8F7A
:1015D00000BF00BF00BF00BF00BFFDE70CED00E093
:1015E0000000FA0502460021B2F5007F29D11D480E
:1015F000006800F4C060B0F5007F31D01948006881
:1016000020F4C06040F40070164B18601648006863
:10161000164BB0FBF3F0322300FB03F100E0491E50
:1016200031B11048406900F48060B0F5806FF6D0A9
:101630000C48406900F48060B0F5806F10D1032041
:1016400070470848006800F4C060B0F5806F07D0AC
:101650000448006820F4C06040F48060014B1860CA
:101660000020EDE7007000400004002040420F0021
:101670000248006800F4C06070470000007000403D
:101680000348006840F4807001490860704700001A
:10169000007000402DE9F84304460D461746FFF759
:1016A000F4FE8046A86900B100BFE86900B100BF40
:1016B000286A00B100BF00BF94F84000012802D1A1
:1016C0000220BDE8F883012084F8400000BF94F8B0
:1016D0004100012828D100206064022084F84100E4
:1016E0004346002220212046009704F0F5FA0646E2
:1016F000DEB900222946204604F0ACF9686A78B9C0
:101700004346012202212046009704F0E5FA0646EE
:101710005EB902202168C860012084F8410004E01D
:10172000012084F8410000E0022600BF002084F878
:10173000400000BF3046C4E7F8B50446FFF7A5FEF9
:1017400006460CB90120F8BD206A402800D000BF31
:1017500000BF94F84000012801D10220F3E70120E6
:1017600084F8400000BF94F8410050B9002084F88C
:101770004000204600F04CF841F28831204600F04D
:10178000E8F82068006820F47061A068401E41EA13
:10179000002021680860A06C3346002220210090C0
:1017A000204604F099FA054635BB2179E06840EA05
:1017B0000160E1690843216A084321680968124A07
:1017C0001140084321680860208A616941EA0040AD
:1017D000A1690843216849680C4A114008432168FF
:1017E00048602068006840F001002168086000201F
:1017F0006064012084F8410000BF002084F84000AC
:1018000000BF28469FE700002FFFFF00FEF8E0FF23
:1018100010B586B004461149206888421CD100BF2B
:101820000F48006D40F480700D4908650846006D52
:1018300000F48070009000BF00BF40F603400190AC
:101840000220029000200390032004900A200590BB
:1018500001A90448FFF726FD06B010BD001000A046
:1018600000100240000400482DE9F84F04460E46DF
:1018700017460025FFF709FE80462068D0F818902B
:10188000206800F1200A00BF94F84000012802D12E
:10189000022000F05BB8012084F8400000BF94F8FB
:1018A000410001284AD100206064002E40D022204F
:1018B00084F8410020680069401CA063206800692A
:1018C000401C606326632068406920F0406040F05F
:1018D0008060216848612068C0F8189013E0434692
:1018E000012206212046009704F0F6F9054605B1CD
:1018F0000CE09AF80000216B0870206B401C2063FC
:10190000A06B401EA063A06B0028E8D100BF5DB9AA
:101910004346012202212046009704F0DDF90546E6
:1019200015B902202168C860012084F8410006E052
:10193000606C40F008006064012500E0022500BFF3
:10194000002084F8400000BF2846A2E718BCBDE88C
:10195000E08F816470472DE9F84304460E46174630
:101960000025FFF792FD8046206800F1200900BFA6
:1019700094F84000012802D10220BDE8F88301203C
:1019800084F8400000BF94F84100012845D10020B0
:101990006064002E3BD0122084F84100206800696A
:1019A000401CE06220680069401CA06266622068FA
:1019B000406920F040602168486113E043460122FD
:1019C00004212046009704F087F9054605B10CE094
:1019D000606A007889F80000606A401C6062E06A12
:1019E000401EE062E06A0028E8D100BF5DB94346CE
:1019F000012202212046009704F06EF9054615B930
:101A000002202168C860012084F8410006E0606C73
:101A100040F008006064012500E0022500BF0020BE
:101A200084F8400000BF2846A7E700002DE9F843EE
:101A30000446002600270025A846208800F4006000
:101A4000B0F5006F26D1606C68B1B0F5000F03D01F
:101A5000B0F5400F0ED10CE0D448C06840F480309F
:101A6000D249C86008E00021201D04F05BF905465A
:101A700002E001E0012500BF00BF55B9CB48883026
:101A8000006820F44000616C0843C849C1F8880030
:101A900000E0A846206800F40030B0F5003F74D1A3
:101AA0004FF00009C148806D00F0805078B900BF48
:101AB000BE48806D40F08050BC4988650846806D06
:101AC00000F08050009000BF00BF4FF00109B848FF
:101AD000006840F48070B6490860FFF7D6FC0746FE
:101AE00006E0FFF7D2FCC01B022801D9032505E060
:101AF000AF48006800F480700028F2D000BF7DBBC2
:101B0000AA489030006800F44076CEB1A06DB04293
:101B100016D0A6489030006820F44076A348D0F84C
:101B2000900040F48030A149C1F890000846D0F8F8
:101B3000900020F48030C1F890000846C0F8906012
:101B400006F00100A8B1FFF7A0FC074609E0FFF787
:101B50009CFCC01B41F28831884202D9032507E072
:101B600016E092489030006800F002000028EED0A5
:101B700000BF5DB98D489030006820F44070A16DC1
:101B800008438A49C1F8900003E00CE0A84600E051
:101B9000A846B9F1010F05D18448806D20F080502E
:101BA0008249886500BF207800F0010048B17F4875
:101BB0008830006820F00300216A08437B49C1F89F
:101BC0008800207800F00200022809D17748883088
:101BD000006820F00C00616A08437449C1F888006D
:101BE000207800F00400042809D17048883000688B
:101BF00020F03000A16A08436C49C1F888002078C1
:101C000000F02000202809D168488830006820F4BE
:101C10004060E16A08436549C1F88800208800F403
:101C20000070B0F5007F09D160488830006820F46A
:101C30004020E16B08435D49C1F88800208800F42A
:101C40008060B0F5806F09D158488830006820F472
:101C50004010216C08435549C1F88800207800F0F5
:101C60004000402809D151488830006820F4405095
:101C7000216B08434D49C1F88800207800F08000AE
:101C8000802809D149488830006820F44040616BC1
:101C900008434649C1F88800208800F48070B0F5F8
:101CA000807F09D141488830006820F44030A16B22
:101CB00008433E49C1F88800206800F40020B0F5D0
:101CC000002F1FD139488830006820F04060A16C97
:101CD0000843364988310860A06CB0F1006F06D126
:101CE0003248C06840F480103049C8600AE0A06CF7
:101CF000B0F1806F06D10121201D04F013F80546D4
:101D000005B1A846206800F48020B0F5802F1FD1CF
:101D100026488830006820F04060E16C0843234981
:101D200088310860E06CB0F1006F06D11F48C068D0
:101D300040F480101D49C8600AE0E06CB0F1806F8B
:101D400006D10121201D03F0EDFF054605B1A8468F
:101D5000208800F48040B0F5804F14D113488830BB
:101D6000006820F04050216D084310498831086018
:101D7000206DB0F1805F06D10221201D03F0D2FF5B
:101D8000054605B1A846208800F40040B0F5004F94
:101D900009D106488830006820F08040616D084312
:101DA0000249C1F888004046BDE8F88300100240AF
:101DB0000070004070B504460D460CB9012070BD9E
:101DC0005348006800F00700A8420ED2504800684F
:101DD00020F0070028434E4908600846006800F0DC
:101DE0000700A84201D00120E9E7207800F00100B7
:101DF000002840D06068032806D14648006800F0FB
:101E00000070D8B90120DAE76068022806D141489D
:101E1000006800F4003088B90120D0E7606830B96C
:101E20003C48006800F0020040B90120C7E739488B
:101E3000006800F4806008B90120C0E73548806878
:101E400020F003006168084332498860FFF71DFBFA
:101E5000064608E0FFF719FB801B41F288318842F3
:101E600001D90320ABE72B48806800F00C006168C3
:101E7000B0EB810FEED1207800F00200022807D1EC
:101E80002448806820F0F000A16808432149886058
:101E90001F48006800F00700A8420ED91C480068DF
:101EA00020F0070028431A4908600846006800F03F
:101EB0000700A84201D0012081E7207800F004004B
:101EC000042807D11348806820F4E060E1680843E3
:101ED00010498860207800F00800082808D10D48D3
:101EE000806820F46050216940EAC1000949886097
:101EF00000F03CF807498968C1F30311064A515CB8
:101F0000C840064908600020FFF7CEFA002056E7D7
:101F10000020024000100240583C0108000400204C
:101F200001480068704700000004002000B5FFF77A
:101F3000F7FF04498968C1F30221034A515CC84094
:101F400000BD000000100240683C010800B5FFF72A
:101F5000E7FF04498968C1F3C221034A515CC840C4
:101F600000BD000000100240683C0108F0B50021EF
:101F7000002300240225022200203B4EB66806F012
:101F80000C065EB1384EB66806F00C060C2E1ED15B
:101F9000354EF66806F00306012E18D1324E36682B
:101FA00006F008062EB9304E94363668C6F3032183
:101FB00003E02D4E3668C6F303112C4E56F821105F
:101FC000294EB66806F00C0686B908460EE0264E85
:101FD000B66806F00C06042E01D1254806E0224E14
:101FE000B66806F00C06082E00D122481E4EB668D0
:101FF00006F00C060C2E36D11B4EF66806F00304D4
:10200000194EF668C6F30216721C012C19D0022C68
:1020100002D0032C14D109E0154EB6FBF2F6124F94
:10202000FF68C7F3062706FB07F313E0114EB6FB64
:10203000F2F60D4FFF68C7F3062706FB07F309E02A
:1020400000BFB1FBF2F6084FFF68C7F3062706FB97
:1020500007F300BF00BF044EF668C6F34166761C66
:102060007500B3FBF5F0F0BD00100240703C0108B4
:102070000024F40000127A00F8B504460CB90120DF
:10208000F8BD207800F0100010286ED1F848806864
:1020900000F00C00002869D1F548006800F002004B
:1020A00018B1A06908B90120EAE7F148216A00687F
:1020B00000F0080020B1EE48006800F0F00005E0F4
:1020C000EB489430006800F47060000981421FD929
:1020D000206A03F0EDFE08B10120D1E700BFE4481B
:1020E000006840F00800E24908600846006820F0F7
:1020F000F000216A0843DE49086000BF08464068D6
:1021000020F47F40E16940EA0120D94948601EE09F
:1021100000BFD748006840F00800D549086008466D
:10212000006820F0F000216A0843D149086000BF30
:102130000846406820F47F40E16940EA0120CC492C
:102140004860206A03F0B4FE08B1012098E7FFF769
:102150000DFFC7498968C1F30311C64A515CC840E5
:10216000C54908600020FFF79FF94AE0A06980B3E5
:10217000BF48006840F00100BD490860FFF785F9DD
:10218000054606E0FFF781F9401B022801D903202C
:1021900076E7B748006800F002000028F2D000BFE0
:1021A000B348006840F00800B1490860084600687C
:1021B00020F0F000216A0843AD49086000BF0846DE
:1021C000406820F47F40E16940EA0120A849486066
:1021D00017E0FFE7A648006820F00100A449086066
:1021E000FFF753F9054606E0FFF74FF9401B0228B9
:1021F00001D9032044E79E48006800F0020000284F
:10220000F2D1207800F00100002868D0984880685A
:1022100000F00C0008280BD09548806800F00C00F6
:102220000C280ED19248C06800F00300032808D1A2
:102230008F48006800F4003088B3606878BB0120E4
:102240001EE700BF6068B0F5803F06D1884800688F
:1022500040F48030864908601AE06068B0F5A02F2D
:102260000BD18348006840F480208149086008460B
:10227000006840F4803008600AE07D48006820F47F
:1022800080307B4908600846006820F480200860A0
:1022900000BF606890B1FFF7F8F8054607E01EE060
:1022A000FFF7F3F8401B642801D90320E8E67048E3
:1022B000006800F400300028F2D010E0FFF7E5F8E5
:1022C000054606E0FFF7E1F8401B642801D903202A
:1022D000D6E66748006800F400300028F2D1207884
:1022E00000F0020002285ED16148806800F00C0016
:1022F00004280BD05E48806800F00C000C2818D130
:102300005B48C06800F00300022812D158480068FA
:1023100000F4806018B1E06808B90120B0E65448C4
:10232000406820F0F850217C40EA01605049486044
:1023300039E0E06800B34E48006840F480704C49D2
:102340000860FFF7A2F8054606E0FFF79EF8401B7D
:10235000022801D9032093E64548006800F4806014
:102360000028F2D04248406820F0F850217C40EA32
:1023700001603F49486016E03D48006820F48070E5
:102380003B490860FFF781F8054606E0FFF77DF856
:10239000401B022801D9032072E63548006800F48A
:1023A00080600028F2D1207800F00800082836D19B
:1023B0006069D0B12E489430006840F001002C498B
:1023C000C1F89400FFF761F8054606E0FFF75DF8F5
:1023D000401B022801D9032052E6254894300068AA
:1023E00000F002000028F1D019E021489430006884
:1023F00020F001001E49C1F89400FFF746F8054699
:1024000006E0FFF742F8401B022801D9032037E617
:1024100017489430006800F002000028F1D12078BD
:1024200000F0040004286ED100261148806D00F0F1
:10243000805070B900BF0E48806D40F080500C494C
:1024400088650846806D00F08050009000BF00BF96
:1024500001260A48006800F48070F0B90748006857
:1024600040F4807005490860FFF70FF805460EE05C
:1024700000100240583C0108000400200070004099
:10248000FFF703F8401B022801D90320F8E59D4817
:10249000006800F480700028F2D000BFA068012816
:1024A00008D19948006840F0010097499039C1F877
:1024B000900021E0A06805280FD19348006840F003
:1024C000040091499039C1F890000846D0F8900076
:1024D00040F00100C1F890000EE08B48006820F049
:1024E000010089499039C1F890000846D0F8900061
:1024F00020F00400C1F8900000BFA068A0B1FEF772
:10250000C4FF054609E02DE0FEF7BFFF401B41F286
:102510008831884201D90320B2E57B48006800F089
:1025200002000028F0D012E0FEF7AFFF054608E0F9
:10253000FEF7ABFF401B41F28831884201D90320EE
:102540009EE57148006800F002000028F0D1012EDD
:1025500007D16D489038806D20F080506A499039DD
:10256000886500BF207800F02000202838D1606AFC
:10257000D8B165480830006840F0010062499039E0
:10258000C1F89800FEF781FF054606E0FEF77DFFE3
:10259000401B022801D9032072E55B48083000681F
:1025A00000F002000028F1D01AE057480830006817
:1025B00020F0010054499039C1F89800FEF765FFFA
:1025C000054606E0FEF761FF401B022801D9032003
:1025D00056E54D480830006800F002000028F1D1AF
:1025E000A06AE8B348489038806800F00C000C28D6
:1025F00074D0A06A022853D143489038006820F074
:102600008070414990390860FEF73FFF054606E0BB
:10261000FEF73BFF401B022801D9032030E53A4872
:102620009038006800F000700028F1D1206B401E47
:102630000101606B41EA0020E16A0843A18F012299
:10264000C2EB510140EA41514020005DC2EB500015
:1026500041EA40613820005D41EAC0602A4900E05B
:102660004EE09039C8600846006840F0807008600D
:102670000846C06840F08070C860FEF706FF054657
:1026800006E0FEF702FF401B022801D90320F7E411
:102690001D489038006800F000700028F1D02FE04D
:1026A00019489038006820F0807017499039086008
:1026B0000846006800F0006020B90846C06820F0B5
:1026C0000300C86010489038C068104908400E499F
:1026D0009039C860FEF7D9FE054607E00EE0FEF728
:1026E000D4FE401B022801D90320C9E406489038D3
:1026F000006800F000700028F1D101E00120BFE483
:102700000020BDE40070004090100240FFFFEEFE8C
:1027100070B504460CB9012070BD606A00B900BFF5
:102720000021A16294F85D0028B9002084F85C00C3
:10273000204600F04DF8022084F85D002068006813
:1027400020F0400021680860E068B0F5E06F01D932
:10275000002501E04FF48055E068B0F5706F05D0BA
:10276000E068B0F5E06F01D00021A162206B40B9B4
:10277000E068B0F5E06F02D90221216301E0012198
:102780002163D4E9010108432169084361690843D1
:10279000218B01F400710843E1690843216A084371
:1027A000A16A0843216808600421A06901EA104079
:1027B000616A0843616B0843E16808432843216864
:1027C000486000202066012084F85D000020A3E717
:1027D00010B586B004461849206888422AD100BF47
:1027E0001648806D40F48040144988650846806D25
:1027F00000F48040009000BF00BF0820019002203C
:10280000029000200390032004900520059001A968
:102810000B48FEF747FD4FF4005001900220029054
:1028200000200390032004900520059001A905488D
:10283000FEF738FD06B010BD003800400010024021
:1028400000080048000400482DE9F84304460D46FE
:1028500017461E464FF00008C14600BF94F85C00C2
:10286000012802D10220BDE8F883012084F85C0031
:1028700000BFFEF70AFE804694F85D00012802D0F2
:102880004FF00209B2E005B117B94FF00109ADE010
:10289000032084F85D0000202066A563A787E787F2
:1028A0002064A4F84400A4F846002065E064A06811
:1028B000B0F5004F05D12068006840F480402168E1
:1028C00008602068006800F04000402805D02068BB
:1028D000006840F0400021680860E068B0F5E06FF3
:1028E0002AD9606810B1E08F012806D128882168B4
:1028F000C860AD1CE08F401EE08719E0206880684A
:1029000000F00200022807D128882168C860AD1CA9
:10291000E08F401EE0870BE03EB1701C40B1FEF737
:10292000B4FDA0EB0800B04202D34FF003095DE014
:10293000E08F0028E2D13FE0606810B1E08F01280D
:1029400011D1E08F012807D928882168C860AD1C03
:10295000E08F801EE08706E015F8010B2168087300
:10296000E08F401EE08724E02068806800F00200CD
:10297000022812D1E08F012807D928882168C86071
:10298000AD1CE08F801EE08713E015F8010B216875
:102990000873E08F401EE0870BE03EB1701C40B131
:1029A000FEF773FDA0EB0800B04202D34FF003091D
:1029B0001CE0E08F0028D7D142463146204603F084
:1029C000D5FA08B120202066A06850B900BF0020C9
:1029D00000902068C068009020688068009000BF68
:1029E00000BF206E08B14FF0010900BF012084F83C
:1029F0005D0000BF002084F85C0000BF484632E75D
:102A000010B50346002200BF93F83C00012801D115
:102A1000022010BD012083F83C0000BF22F0FF001F
:102A2000CC6840EA040222F440708C6840EA040258
:102A300022F480604C6840EA040222F400600C68D2
:102A400040EA040222F480500C6940EA040222F4B5
:102A500000504C6940EA040222F480408C6A40EA4B
:102A6000040222F470200C8B40EA04420D4C1868DA
:102A7000A0420ED122F470008C8C40EA045222F065
:102A80008070CC6940EA040222F000700C6A40EACF
:102A900004021868426400BF002083F83C0000BFB5
:102AA00000BFB6E7002C014030B502460B4600BF20
:102AB00092F83C00012801D1022030BD012082F8AB
:102AC0003C0000BF022082F83D0010684168106899
:102AD00084680F4D1068A84203D121F47001586832
:102AE000014321F070011868014324F080049868C4
:102AF00004431068416010688460012082F83D0042
:102B000000BF002082F83C0000BF00BFD5E70000F6
:102B1000002C014010B504460CB9012010BD94F8FA
:102B20003D0028B9002084F83C00204600F00CF855
:102B3000022084F83D00211D206803F09FFB012046
:102B400084F83D000020E9E738B5044616492068BE
:102B500088420DD100BF1548006E40F40030134983
:102B600008660846006E00F40030009000BF00BF09
:102B70002068B0F1804F15D100BF0C48806D40F047
:102B800001000A4988650846806D00F00100009048
:102B900000BF00BF002211461C20FEF7ACFC1C2029
:102BA000FEF799FC38BD00000044014000100240CF
:102BB0000146022081F83D00086880680C4A1040F8
:102BC000062805D0086880681040B0F5803F01D124
:102BD000012000E0002028B90868006840F00100EA
:102BE0000A681060012081F83D0000207047000055
:102BF000070001000146022081F83D0000BF08687F
:102C0000006A41F21112104050B90868006A92102F
:102C1000104028B90868006820F001000A681060B8
:102C200000BF012081F83D00002070472DE9F041F0
:102C300004460D4600BF94F83C00012802D1022052
:102C4000BDE8F081012084F83C0000BF022084F838
:102C50003D00206886683C48064026F47F46206890
:102C60008660286850283CD00CDC202859D004DC31
:102C7000002854D010285AD152E0302852D0402891
:102C800055D142E0602836D070280ED0B0F5805F74
:102C900003D0B0F5005F4AD116E0206880682A4969
:102CA000703108402168886042E0D5E902136A6803
:102CB000206803F02EFB206886682348064046F013
:102CC00077062068866033E0D5E902136A682068D9
:102CD00003F01FFB2068806840F480402168886012
:102CE00026E0EA686968206803F088FC50212068C3
:102CF00003F01AFB1CE0EA686968206803F091FCA5
:102D00006021206803F010FB12E0EA68696820681F
:102D100003F074FC4021206803F006FB08E000BFCC
:102D200000BF00BF2968206803F0FEFA00E000BF82
:102D300000BF012084F83D0000BF002084F83C0063
:102D400000BF00BF7CE7000088FFFEFF10B586B023
:102D500004460A49206888420DD18015019002205E
:102D6000029000200390022004900E20059001A9FB
:102D70000348FEF797FA06B010BD0000004401407A
:102D80000004004870B504460D46164600BF94F88E
:102D90003C00012801D1022070BD012084F83C00D4
:102DA00000BF022084F83D000C2E51D005DC4EB14E
:102DB000042E1ED0082E7AD133E0102E60D0142EAF
:102DC000F9D175E02946206803F0B8FA20688069D7
:102DD00040F00800216888612068806920F00400C4
:102DE00021688861206880692969084321688861B1
:102DF00077E02946206803F0E5FA2068806940F40E
:102E00000060216888612068806920F48060216802
:102E1000886120688069296940EA01202168886109
:102E20005FE02946206803F015FB2068C06940F088
:102E300008002168C8612068C06920F0040021688A
:102E4000C8612068C069296908432168C86148E0F1
:102E50002946206803F046FB2068C06940F4006002
:102E60002168C8612068C06920F480602168C86159
:102E70002068C069296940EA01202168C86130E002
:102E80002946206803F05EFB2068406D40F0080092
:102E9000216848652068406D20F00400216848657D
:102EA0002068406D296908432168486519E017E0EA
:102EB0002946206803F074FB2068406D40F40060F0
:102EC000216848652068406D20F48060216848656D
:102ED0002068406D296940EA01202168486500E0CA
:102EE00000BF00BF012084F83D0000BF002084F82F
:102EF0003C0000BF00BF4FE710B504460CB90120ED
:102F000010BD94F83D0028B9002084F83C0020460C
:102F100000F00CF8022084F83D00211D206803F029
:102F2000ADF9012084F83D000020E9E7704700007A
:102F300030B504460D4601222946206803F0D8F931
:102F400016492068884207D015492068884203D076
:102F500014492068884201D1012000E0002028B1F6
:102F60002068406C40F40040216848642068806814
:102F70000D490840062805D0206880680840B0F553
:102F8000803F01D1012000E0002028B920680068BE
:102F900040F0010021680860002030BD002C014095
:102FA00000400140004401400700010030B50446E4
:102FB0000D4600222946206803F09AF91D49206831
:102FC000884207D01C492068884203D01B492068EA
:102FD000884201D1012000E0002090B100BF2068AC
:102FE000006A41F21111084050B92068006A891046
:102FF000084028B92068406C20F4004021684864EB
:1030000000BF00BF2068006A41F21111084050B9AA
:103010002068006A8910084028B92068006820F0FC
:1030200001002168086000BF012084F83D000020F5
:1030300030BD0000002C0140004001400044014030
:10304000704770472DE9F04104462068C569206843
:1030500006682068876805F00F08B8F1000F0CD1EA
:1030600005F0200048B106F0200030B1206E10B10C
:103070002046216E8847BDE8F081B8F1000F7FD06F
:1030800007F0010018B906F49070002878D005F018
:10309000010048B106F4807030B101202168086257
:1030A000606F40F00100606705F0020048B107F072
:1030B000010030B1022021680862606F40F0040016
:1030C000606705F0040048B107F0010030B104204A
:1030D00021680862606F40F00200606705F0080038
:1030E00060B106F0200010B907F0010030B10820EF
:1030F00021680862606F40F008006067606F78B315
:1031000005F0200038B106F0200020B1206E10B18B
:103110002046216E8847606F00F0080028B92068BB
:10312000806800F04000402824D1204603F04FFB87
:103130002068806800F04000402817D1206880682F
:1031400020F0400021688860E06E58B11F48E16EB1
:103150008863E06EFEF778F810B1E06E816B884707
:103160000DE00DE02046FFF76CFF08E02046FFF77A
:1031700068FF04E02046FFF764FF002060677AE7FD
:1031800005F4801050B107F4800038B14FF480107E
:10319000216808622046FFF753FF6CE705F08000C6
:1031A00040B106F0800028B1606E10B12046616E1B
:1031B000884760E705F0400030B106F0400018B1E4
:1031C000204603F016FB56E700BF54E7B767000838
:1031D00010B504460CB9012010BDA06900B100E093
:1031E00000BF94F8710028B9002084F870002046D0
:1031F00000F02AF8242084F871002068006820F08C
:10320000010021680860204603F06EFB012800D110
:10321000E2E7606A10B1204603F017FA20684068C0
:1032200020F49040216848602068806820F02A00DF
:10323000216888602068006840F00100216808600B
:10324000204603F07EFAC7E710B586B0044654491D
:103250002068884224D100BF5248C06D40F0010070
:103260005049C8650846C06D00F00100009000BFDD
:1032700000BF032001900220029000200390032051
:1032800004900820059001A94748FEF70BF800229A
:1032900011464620FEF72FF94620FEF71CF97CE088
:1032A00042492068884226D100BF3E48006E40F463
:1032B00080403C4908660846006E00F4804000905B
:1032C00000BF00BF4FF4C0600190022002900020B8
:1032D0000390032004900720059001A94FF090402F
:1032E000FDF7E0FF002211462520FEF704F9252016
:1032F000FEF7F1F851E02E492068884225D100BF41
:103300002848806D40F40030264988650846806D65
:1033100000F40030009000BF00BF0C20019002209C
:10332000029000200390032004900720059001A93B
:103330004FF09040FDF7B6FF002211462620FEF721
:10334000DAF82620FEF7C7F827E01A4920688842F5
:1033500023D100BF1348806D40F480201149886557
:103360000846806D00F48020009000BF00BF302030
:103370000190022002900020039003200490072077
:10338000059001A90848FDF78DFF0022114627206E
:10339000FEF7B1F82720FEF79EF806B010BD00003A
:1033A0000080004000100240000800480038014042
:1033B000004400400048004010B5034693F87200F6
:1033C000202862D101B10AB9012010BD00BF93F8D5
:1033D0007000012801D10220F7E7012083F8700076
:1033E00000BF5965A3F85820A3F85A20002018669A
:1033F00000BF9868B0F5805F0AD1186920B940F223
:10340000FF10A3F85C001CE0FF20A3F85C0018E0AC
:10341000986848B9186918B9FF20A3F85C0010E053
:103420007F20A3F85C000CE09868B0F1805F08D1C1
:10343000186918B97F20A3F85C0002E03F20A3F8C8
:103440005C0000BF00205867222083F872001868D3
:10345000806840F001001C68A0609868B0F5805F4B
:1034600004D1186910B90A48186601E009481866BD
:1034700000BF002083F8700000BF1868006840F4A7
:1034800090701C68206000209FE702209DE70000EC
:10349000156800088168000870472DE9F843044664
:1034A0000D4616461F464FF0000994F8710020287B
:1034B00055D105B116B90120BDE8F88300BF94F8D5
:1034C0007000012801D10220F6E7012084F8700085
:1034D00000BF00206067212084F87100FDF7D5FF50
:1034E0008146A4F85060A4F8526021E04B460022C7
:1034F00080212046009703F000FC08B10320DBE7A1
:10350000A068B0F5805F0AD1206940B9A846B8F834
:103510000000C0F3080021680885AD1C03E015F821
:10352000010B21680885B4F85200401EA4F852002F
:10353000B4F852000028D9D14B4600224021204641
:10354000009703F0DAFB08B10320B5E7202084F8E8
:10355000710000BF002084F8700000BFACE70220BB
:10356000AAE7704710B5044606F0E2FB02F066F8E1
:1035700010BD000070B52DED0A8B044600F072F806
:10358000204600F05FF8002021690968486200BF0A
:10359000A189A068FDF76CFF0028F9D02069FFF72A
:1035A00007FB00BFA189A068FDF762FF0128F9D0E1
:1035B0002069FFF71FFB20690068456A2846FDF770
:1035C00064F941EC1C0B9FED140B53EC102BFDF731
:1035D000EDF841EC1B0B9FED120B53EC102BFDF79C
:1035E00070F841EC1A0B9FED100B53EC102BFDF70C
:1035F000DDF841EC190B9FED0E0B53EC102BFDF792
:1036000060F841EC180BFDF791F9606100F02BF8C0
:10361000002000F011B870BD0000000080842E4131
:103620000000000000407540000000000000004065
:103630000000000000005940BDEC088BBDEC02CB3F
:10364000FFF7E9BF10B50446A18801222068FDF705
:1036500017FF0A20FDF770FCA18800222068FDF703
:103660000FFF10BD704770471CB5FDF712FF02F049
:103670005BFD234823490860042088804FF0904078
:1036800088604FF4807088811F48086101F0EEFE69
:1036900002F024F801F03AFF1C48006805F092FEA1
:1036A00000F0F4F94FF6FF7000F05EF900201849C1
:1036B0000880FDF78DFC1348FFF754FF15A0182173
:1036C0000B46F022CDE900103221142000F0C1FB9E
:1036D00015A010210B464FF49672CDE9001064211D
:1036E000282000F0B6FB15A010210B464FF496726F
:1036F000CDE900108221322000F0ABFB1CBD0000A0
:1037000000080048680A0020C40C002000040020C3
:1037100048050020212121212121212121212121B0
:103720002121212100000000506C65617365205744
:1037300061697420466F72202C0000002053797359
:1037400074656D20496E697400000000F0B5034691
:103750000D46164600210022002413B1002E00DD84
:1037600015B94FF0FF30F0BD00211DE05A5C392A39
:1037700002DCA2F1300001E0A2F13700C2B2481C25
:103780001C5C392C02D8A4F1300001E0A4F1370010
:103790000446274662F31F17084601EBD07C4FEA28
:1037A0006C0C05F80C70891CB142DFDB0020DAE7F5
:1037B0002DE9F047074688469146002424E0385D0D
:1037C000FCF70FFDC5B2611C785CFCF70AFDC6B2C0
:1037D000392D03DDA5F13700C5B202E0A5F13000B7
:1037E000C5B2392E03DDA6F13700C6B202E0A6F15C
:1037F0003000C6B246EA0511204604EBD0725210E2
:1038000008F80210A01C04B24C45D8DBBDE8F087D4
:1038100000B587B000BF1048C06C40F002000E49F0
:10382000C8640846C06C00F00200019000BF00BFF1
:10383000002289150948FDF723FE4FF4807002909D
:103840000120039000200490059002A90348FDF791
:1038500029FD07B000BD0000001002400004004830
:1038600010B5FDF7ABFCFFF7D3FF00F02DF800F02B
:1038700003F801F07FFE10BD00B587B000BF10480F
:10388000C06C40F004000E49C8640846C06C00F0EB
:103890000400019000BF00BF002249150948FDF750
:1038A000EFFD4FF40070029001200390002004907F
:1038B000059002A90348FDF7F5FC07B000BD000024
:1038C000001002400008004800B587B000BF104853
:1038D000C06C40F001000E49C8640846C06C00F09E
:1038E0000100019000BF00BF012211464FF090403F
:1038F000FDF7C6FD01200290039000200490059082
:1039000002A94FF09040FDF7CDFC07B000BD0000CC
:10391000001002402DE9F04104460D4616461F46B0
:103920002A2000F0C7FA201200F0D2FAE0B200F02C
:10393000CFFA301200F0CCFAF0B200F0C9FA2B2026
:1039400000F0B8FA281200F0C3FAE8B200F0C0FAAA
:10395000381200F0BDFAF8B200F0BAFA2C2000F0EC
:10396000A9FABDE8F0810000F8B5054600200090F6
:1039700028128DF80000E8B28DF80100EF231A46F6
:1039800000210846FFF7C6FF00240DE09DF8000067
:103990000F4901F814009DF80100012101EB4401D9
:1039A0000B4A5054601C84B2B4F5107FEEDB012248
:1039B00040210848FDF764FD002606E04FF49061C1
:1039C000034800F033F9701C86B2642EF6DBF8BDB4
:1039D000841700200008004800B587B000BF2848C1
:1039E000C06C40F002002649C8640846C06C00F074
:1039F0000200019000BF00BF00BF0846C06C40F04D
:103A00000400C8640846C06C00F00400019000BFC8
:103A100000BF4FF400400290012003900490022068
:103A2000059002A91748FDF73DFC00224FF4004124
:103A30001448FDF725FDC02002900120039004905A
:103A40000220059002A91048FDF72CFC0022C0219D
:103A50000D48FDF715FD00224FF400410948FDF720
:103A60000FFD002280210848FDF70AFD0C2005F01B
:103A700075FB012280210448FDF702FD07B000BD5F
:103A800000100240000400480008004810B5FFF78D
:103A9000A3FF0C2005F062FB112000F00BFA0C20B4
:103AA00005F05CFB362000F005FA002000F010FA6B
:103AB0003A2000F0FFF9652000F00AFAB22000F089
:103AC000F9F90C2000F004FA0C2000F001FA0020B3
:103AD00000F0FEF9332000F0FBF9332000F0F8F994
:103AE000B72000F0E7F9722000F0F2F9BB2000F0F7
:103AF000E1F93D2000F0ECF9C02000F0DBF92C20CA
:103B000000F0E6F9C22000F0D5F9012000F0E0F95C
:103B1000C32000F0CFF9192000F0DAF9C42000F03A
:103B2000C9F9202000F0D4F9C62000F0C3F90F2015
:103B300000F0CEF9D02000F0BDF9A42000F0C8F9C3
:103B4000A12000F0C5F9E02000F0B4F9D02000F089
:103B5000BFF9042000F0BCF90D2000F0B9F91120E4
:103B600000F0B6F9132000F0B3F92B2000F0B0F903
:103B70003F2000F0ADF9542000F0AAF94C2000F0ED
:103B8000A7F9182000F0A4F90D2000F0A1F90B20EE
:103B900000F09EF91F2000F09BF9232000F098F917
:103BA000E12000F087F9D02000F092F9042000F025
:103BB0008FF90C2000F08CF9112000F089F9132006
:103BC00000F086F92C2000F083F93F2000F080F906
:103BD000442000F07DF9512000F07AF92F2000F008
:103BE00077F91F2000F074F91F2000F071F92020F0
:103BF00000F06EF9232000F06BF9212000F05AF953
:103C0000292000F057F9EF231A4600210846FFF754
:103C100081FE4FF6FF70FFF7A7FE0122D103024895
:103C2000FDF72EFC10BD00000004004870B50446EE
:103C30000D462946204602F08BF970BD2DE9FE4F56
:103C400082468B4616461C46A6F12000C6B204EBFF
:103C5000D4714910C1F1F001514503DBC4F1F00109
:103C6000594501DA00F0F2B804EBD4700AEB6000B9
:103C7000401E82B20BEB0400401E83B259465046F0
:103C80000094FFF747FE102C01D0202C4ED1204687
:103C9000E31704EB5373DB1021464FEAE47C04EB9B
:103CA0005C7C4FEAEC0CA4EBCC0CBCF1000F02D016
:103CB0004FF0010C01E04FF0000C6344224604EB8E
:103CC000D27C4FEA6C0C03FB0CF303F0FF090025D8
:103CD00029E0102C04D1574800EB0610475D07E09F
:103CE000202C04D1544800EBC610475D00E0B9E732
:103CF0004FF0000812E007F0800018B14F4800882C
:103D0000029002E04E4800880290029800F0EEF81F
:103D10007806070E08F1010000F0FF08B8F1080F5F
:103D2000E9DB681CC5B24D45D3DB80E00C2C45D1E6
:103D30002046E31704EB5373DB1021464FEAE47C83
:103D400004EB5C7C4FEAEC0CA4EBCC0CBCF1000F58
:103D500002D04FF0010C01E04FF0000C634422460A
:103D600004EBD27C4FEA6C0C03FB0CF303F0FF096D
:103D7000002520E006EB4600324901EB8000475D5C
:103D80004FF0000812E007F0800018B12B480088BF
:103D9000029002E02A4800880290029800F0A6F8FB
:103DA0007806070E08F1010000F0FF08B8F1060FD1
:103DB000E9DB681CC5B24D45DCDB38E0182C36D198
:103DC0002001C11700EB5171C1F3C70900252CE098
:103DD00006EB46001C4901EB0010475D284605EB49
:103DE000D0714910A5EB410111B90820019001E003
:103DF000042001904FF0000812E007F0800018B195
:103E00000E480088029002E00D4800880290029857
:103E100000F06CF87806070E08F1010000F0FF08CA
:103E200001988045E9DB681CC5B24D45D0DB00BF79
:103E300018E70000A3420108635A01084805002062
:103E40004A0500202F3E0108934801081EBCBDE82A
:103E5000E08F2DE9F04704460D4690469946DDE98E
:103E6000086704F0FF0A08EB04001FFA80F809EB6A
:103E700005001FFA80F914E0444502DB5446A819F6
:103E800085B24D4500DB12E03A783346294620469C
:103E9000FFF7D4FE304606EBD07104EB61018CB223
:103EA0007F1C38787E2802DC38782028E4DA00BFCE
:103EB000BDE8F08701B5002240210448FDF7E0FA93
:103EC00001216846FFF7B2FE08BD00000008004867
:103ED00001B5012240210448FDF7D2FA01216846CC
:103EE000FFF7A4FE08BD00000008004838B50446EE
:103EF0000020009020128DF80000E0B28DF8010043
:103F0000012240210348FDF7BBFA02216846FFF772
:103F10008DFE38BD0008004802465018401E9042F1
:103F200004D95018401E4B1E98437047481E22EA81
:103F30000000FAE72DE9F84305460C4616461F46F1
:103F4000DDF820800A48006848B10948CDF80080B3
:103F50003B4632462146D0F800C02846E047054897
:103F6000844202D00020BDE8F8830020FBE7000077
:103F70003C050020F8C3B2A12DE9F04704460D46E8
:103F800091461E46089F16B92548BDE8F087F02CDB
:103F900002D32348401EF8E7224904F1100051F8EB
:103FA00020002149884202D01D48C01CEDE7072DA2
:103FB00001DC002D02DA1A48001DE6E7FCF766F87E
:103FC00080461A49174A04F1100042F82010184997
:103FD00041F8206060B2002809DB00F01F020121D7
:103FE00091404209920002F1E022C2F8001100BFA4
:103FF00060B22946002804DB0A07130E0D4A135449
:1040000008E00A074FEA126C0B4A00F00F031B1F6F
:1040100002F803C000BF4046FCF740F80020B4E7B8
:10402000010900020000002065F6000845F70008BD
:104030008413002000E400E018ED00E010B50BF060
:104040005BFE2B482B4908600BF0B8FB044654B1CB
:1040500000BF29A002F092FE214629A002F08EFEA8
:1040600000BF204610BD0BF01BFB0CF0D3FA04463A
:104070004CB100BF20A002F081FE28A002F07EFE1D
:1040800000BF2046EEE70CF059FB0BF0A1FE044602
:104090000CB12046E6E70BF0A1FB04460CB120462C
:1040A000E0E70BF0E9FC04464CB100BF12A002F0BF
:1040B00065FE1FA002F062FE00BF2046D2E70BF0B3
:1040C000E9FF04464CB100BF0BA002F057FE1DA053
:1040D00002F054FE00BF2046C4E70CF0A3FD0BF035
:1040E00007FB04460CB12046BCE70020BAE70000FD
:1040F000E82E0020400500205B4552525D20000064
:104100006F734D656D53797374656D496E69742075
:104110006572726F722025640A0000006F7354612B
:10412000736B496E6974206572726F720A000000C9
:104130006F735175657565496E6974206572726F2C
:10414000720A00006F735377546D72496E69742060
:104150006572726F720A000042684A6008604268C5
:1041600011604160704742684A60086042681160AF
:104170004160704742684A6008604268116041606F
:10418000704742684A600860426811604160704749
:10419000D0E900121160D0E9002151600021416096
:1041A0000160704701464868884201D1012070478C
:1041B0000020FCE701464868884201D10120704791
:1041C0000020FCE701464868884201D10120704781
:1041D0000020FCE701464868884201D10120704771
:1041E0000020FCE701464868884201D10120704761
:1041F0000020FCE74060006070474060006070474E
:1042000040600060704740600060704770B50446D1
:104210000D4629462068FFF79FFF70BD70B5044624
:104220000D46002604B10DB9304670BD2946204622
:104230000BF06CFE064626B9294620460BF02AF8FC
:1042400006463046F1E770B504460D46164632463E
:10425000294620460BF0D5F870BD70B504460D46D2
:10426000002604B10DB9012070BD294620460BF08F
:104270009DFE0646012E04D0294620460BF0EEF89E
:104280000646012E01D00120EEE70020ECE70000F9
:104290002DE9F84F04460E464FF0010830480568F6
:1042A000D0F800900CB1502E02D8012000F076B862
:1042B00004F0030008B10120F8E7FBF7E7FE8246AF
:1042C00020E0A8684719AC4202D8A019A84204D837
:1042D000BC4215D2A019B84212D300BF21A002F0EF
:1042E0004DFDA8682844A2192B46214600901FA026
:1042F00002F044FD00BF5046FBF7D0FE0120D5E799
:10430000A946ED68002DDCD1314620460BF049F975
:104310008046B8F1000F04D15046FBF7BFFE0120E4
:10432000C4E7B6F5805F0BD320460BF07CFE8046D9
:10433000B8F1000F04D15046FBF7B0FE0120B5E7FD
:104340000748006810B90648046001E0C9F80C404D
:104350000020E0605046FBF7A1FE0020A6E7000029
:10436000380500205B4552525D200000706F6F6C75
:10437000205B25702C20307825782920636F6E66AD
:104380006C696374207769746820706F6F6C205B50
:1043900025702C2030782578290A000018BCBDE84B
:1043A000E08F00002DE9F843064616B91E48BDE827
:1043B000F883FBF76BFE81461C48FFF703FF40B113
:1043C0004846FBF76BFE00BF174F7F1CDFF860808D
:1043D0001FE01648446800BFD4E900010860D4E932
:1043E0000010486000206060206000BFA4F1080554
:1043F0006880012028700020A882286105F108004B
:10440000FFF7FBFE686830604846FBF747FE002078
:10441000CDE700BF002003463A464146009005A084
:10442000FFF788FD3846C2E7021D0002080500209C
:10443000F8C3B2A16F735F756E7370656369666967
:10444000635F66696C6500002DE9F8430746142F29
:1044500003D300BF1D4D1E4E2DE007EB47001D4945
:10446000096801EBC004FBF711FE8046207830B9E3
:104470004046FBF713FE00BF144D154E1BE004F140
:104480000800FFF79FFE08B1608838B14046FBF78F
:1044900005FE00BF0D4D08350D4E0CE004F108017E
:1044A0000D48FFF760FE002020704046FBF7F6FD48
:1044B0000020BDE8F88300BF002003462A463146AD
:1044C000009006A0FFF736FD2846F2E7011D000226
:1044D000F8C3B2A104050020080500206F735F75C2
:1044E0006E73706563696669635F66696C65000019
:1044F0002DE9F84307468846142F0BD300BF002050
:104500000346494A4949009049A0FFF713FD464830
:10451000BDE8F88307EB47004A49096801EBC0048E
:10452000FBF7B4FD8146207868B94846FBF7B6FD35
:1045300000BF002003463C4A3C4900903CA0FFF7E6
:10454000F9FC3948E4E70BF0F9F828B14846FBF7E5
:10455000A5FD3548001DDBE73B480568608850B97C
:104560006088401C60802561E888A0824846FBF78F
:1045700095FD0020CCE72069A84207D16088401C47
:1045800060804846FBF78AFD0020C1E7B8F1000FC4
:1045900005D14846FBF782FD2348C01CB8E72B48ED
:1045A000008850B1204E761D00BF29A002F0E6FB26
:1045B00029A002F0E3FB00BF27E0EC612069C0887E
:1045C000E988884203DDE98820690CF0CFF842468B
:1045D000082104F108000CF015FA4846FBF75EFDCF
:1045E00000F0CAF9287900F0400060B1FBF74EFDF9
:1045F0008146A88820F04000A8804846FBF74EFD81
:10460000094EB61D05E0002082E74846FBF746FD4F
:1046100000BF00BF0020034632460449009004A0BA
:10462000FFF788FC304673E7011D0002F8C3B2A112
:104630006F735F756E73706563696669635F6669E2
:104640006C6500000405002098040020A0040020F0
:104650005B4552525D2000002121214C4F535F45A4
:1046600052524E4F5F4D55585F50454E445F494E34
:104670005F4C4F434B2121210A0000002DE9F843F4
:10468000064606EB46003049096801EBC004FBF71B
:10469000FDFC8046142E01D2207870B94046FBF70D
:1046A000FDFC00BF00200346284A2949009029A0AC
:1046B000FFF740FC2548BDE8F8832B480768608871
:1046C00010B12069B8420DD04046FBF7E7FC00BFAF
:1046D000002003461D4A1E4900901EA0FFF72AFC39
:1046E0001A48E8E76088401E80B2608020B14046EA
:1046F000FBF7D4FC0020DEE72069C088A18A88424D
:1047000003D0A18A20690CF031F804F10800FFF70A
:1047100059FD98B9E068A0F1280501206080256165
:10472000E888A0820020E861082128460CF090F972
:104730004046FBF7B3FC00F01FF902E04046FBF7F0
:10474000ADFC0020B7E7000004050020011D0002B9
:10475000F8C3B2A16F735F756E7370656369666944
:10476000635F66696C650000980400202DE9F05FC6
:104770000E469046DDF8289009F104001FFA80FAF1
:10478000B8F1000F02D12E4800F060B84FF6FB7070
:10479000814502DD2A480938F6E716B1B9F1000F64
:1047A00002D12748401CEFE706FB0AF125480068C4
:1047B000FFF734FD074617B921480A38E4E7FBF74D
:1047C00065FC83462048FFF705FD50B15846FBF7CE
:1047D00065FC39461B480068FFF73FFD184808385C
:1047E000D2E71948456800BFD5E900010860D5E95E
:1047F0000010486000206860286000BFA5F11C041C
:10480000E680A4F808A027600120A0800020208274
:104810006682A081E08104F11400FFF7F1FC04F14D
:104820001C00FFF7EDFC04F12400FFF7E9FC5846FB
:10483000FBF734FC6089C8F800000020A4E7000002
:104840000C060002400500201405002030BCBDE825
:10485000C09F00002DE9F041064600270A2E02D332
:104860002648BDE8F081FBF711FC804606EB4600C8
:1048700000EBC6002249096801EB8004A08810B94A
:104880001E4D6D1D34E004F11400FFF7A3FC10B9B8
:104890001A4DED1C2CE004F11C00FFF79BFC10B935
:1048A000164DED1C24E004F12400FFF793FC10B931
:1048B000124DED1C1CE0608A218A0844E188884280
:1048C00002D00E4DAD1D13E0276800202060A080AF
:1048D00004F11C010B48FFF74DFC4046FBF7DEFBE3
:1048E000394609480068FFF7B8FC05462846B8E78E
:1048F0004046FBF7D3FB2846B3E70000050600025D
:104900001005002014050020400500202DE9F84383
:1049100081460C4615461E4633462A4621464846E1
:104920000BF0AAF9074617B13846BDE8F8834FF0F7
:1049300000082B4622464146484600960BF0D4F824
:10494000F3E72DE9FF4182B080460C461D462B4619
:1049500004AA214640460BF0AFF906461EB1304688
:1049600006B0BDE8F081032704AB22463946404635
:1049700000950BF0B9F8F3E710B5FBF787FB044699
:104980000AF0E0FF28380A4948600846006849688C
:10499000884208D00748008828B92046FBF77EFBEC
:1049A000FBF77FFB10BD2046FBF778FB00BFF9E764
:1049B00098040020A004002070B505460C4622464D
:1049C0004FF6FF7128460BF0A1F970BD2DE9F843B1
:1049D0000746142F03D300BF1B4D1C4E29E01C4873
:1049E000006800EB0714FBF751FB8046208830B9C4
:1049F0004046FBF753FB00BF134D144E19E004F182
:104A00000800FFF7EFFB38B94046FBF747FB00BF54
:104A10000D4D08350D4E0CE004F108010D48FFF76F
:104A2000B0FB002020804046FBF738FB0020BDE8AB
:104A3000F88300BF002003462A463146009006A0B6
:104A4000FFF778FA2846F2E701070002F8C3B2A19F
:104A5000240500201C0500206F735F756E73706560
:104A600063696669635F66696C6500002DE9F843F8
:104A700007468846142F0BD300BF002003463C4A4C
:104A80003C4900903CA0FFF755FA3948BDE8F8834F
:104A90003E48006800EB0714FBF7F8FA81462088CF
:104AA00068B94846FBF7FAFA00BF00200346304ACF
:104AB0003049009030A0FFF73DFA2D48E6E76088C6
:104AC000002807DD6088401E60804846FBF7E6FA54
:104AD0000020DBE7B8F1000F02D1254DED1C39E0D5
:104AE0000AF02CFE50B1224D2D1D00BF28A002F06F
:104AF00045F929A002F042F900BF2BE02F480088B9
:104B000050B11B4D6D1D00BF21A002F037F92CA044
:104B100002F034F900BF1DE032480668B461424635
:104B2000082104F108000BF06DFF4846FBF7B6FAC8
:104B3000FFF722FF307900F0400048B1FBF7A6FAFA
:104B40008146B08820F04000B080094DAD1D01E0E5
:104B500000209BE74846FBF7A1FA00BF0020034670
:104B60002A460449009004A0FFF7E4F928468DE79F
:104B700001070002F8C3B2A16F735F756E737065B1
:104B800063696669635F66696C65000024050020DF
:104B90005B4552525D2000002121214C4F535F455F
:104BA00052524E4F5F53454D5F50454E445F494E04
:104BB000544552522121210A00000000A004002087
:104BC0002121214C4F535F4552524E4F5F53454D6B
:104BD0005F50454E445F494E5F4C4F434B2121216E
:104BE0000A00000098040020F8B505462548006832
:104BF00000EB0514142D01D32348F8BDFBF746FA4A
:104C00000746208868B93846FBF748FA00BF0020FD
:104C100003461D4A1D4900901DA0FFF78BF91A4855
:104C2000EBE7A088618888420FD13846FBF736FA57
:104C300000BF00200346144AD21D1449009014A05E
:104C4000FFF778F91048C01DD7E704F10800FFF717
:104C5000C9FA70B9E068A0F128060020B061082107
:104C600030460BF0F5FE3846FBF718FAFFF784FEE6
:104C700005E06088401C60803846FBF70FFA002092
:104C8000BBE700002405002001070002F8C3B2A121
:104C90006F735F756E73706563696669635F66697C
:104CA0006C65000010B50BF00BFF04464CB100BF63
:104CB00006A002F063F807A002F060F800BF2046EB
:104CC00010BDFBF7BDF92046FAE700005B455252E4
:104CD0005D2000006F735469636B537461727420BC
:104CE0006572726F720A00002DE9F84F06460D4694
:104CF00017469846DDE90AB9DDF830A016B927480D
:104D000000F050B835B1012D04D0022D02D0234857
:104D1000401CF5E717B92148401EF1E7B8F1000F34
:104D200002D11E48801CEBE7B9F1000F05D0B9F1A4
:104D3000010F02D019481030E2E7BAF1010F05D097
:104D4000BAF1000F02D015481130D9E7FBF79EF9F0
:104D500000901348006828B90098FBF79FF90F48A6
:104D6000C01CCDE70E4804680D4920680860009813
:104D7000FBF794F9A7616571266100202060E0606F
:104D8000C4F814B084F8069084F807A001202071BC
:104D90002089A8F800000020B2E70000010300020B
:104DA0008004002018BCBDE8E08F00002DE9F0472A
:104DB00005464FF000084FF6F070854202DB46488A
:104DC000BDE8F087FBF762F981462846E91705EB55
:104DD00011710911A5EB01118FB2C7EBC7003F4953
:104DE000096801EB80042089A84204D04846FBF7FB
:104DF00055F93948E4E7E07901284ED16079012876
:104E00004BD12089C21700EB12721211A0EB0212D3
:104E1000334B53F8222042F080420146C31700EB87
:104E200013731B11A0EB0313DFF8B4C04CF823205D
:104E30000A212069B0FBF1F201FB120068BB208956
:104E4000C21700EB12721211A0EB0212634653F864
:104E5000222042F000520146C31700EB13731B11CE
:104E6000A0EB03134CF823200A212069B0FBF1F6D4
:104E70002089C21700EB12721211A0EB02126346D6
:104E800053F8222066F317020146C31700EB137391
:104E90001B11A0EB03134CF82320207920B101282B
:104EA0000BD002280DD104E0DFF82C8008F10108B6
:104EB0000CE020460BF0F4FA00BF20460BF03AF964
:104EC00004E0DFF8148008F1090800BF00BF48467D
:104ED000FBF7E4F8404673E7050300027C0400207A
:104EE000EC1100202DE9F041044600274FF6F07048
:104EF000844202DB1A48BDE8F081FBF7C7F8804620
:104F00002046E11704EB11710911A4EB01118EB2D7
:104F1000C6EBC6001349096801EB80052889A04249
:104F200004D04046FBF7BAF80D48E4E7287920B1F1
:104F3000012805D002280AD105E0094F7F1C09E0AD
:104F4000074F083706E028460BF0AAFA02E0044FA4
:104F5000093700BF00BF4046FBF7A0F83846CAE754
:104F6000050300027C0400202DE9F04105460F46B0
:104F700000263946284600F045F8064616B1304668
:104F8000BDE8F0812868C0EBC00000EB4000194983
:104F9000096801EB8004FBF779F88046A08820F0CF
:104FA0000200A080A08840F00400A080E18804F105
:104FB00028000AF06BFC0AF0C5FC28380E4948604E
:104FC0000E48006888B10E48008870B9084600682D
:104FD0004968884209D00A48008830B94046FBF742
:104FE0005DF80AF08FFE0020CAE74046FBF756F84E
:104FF0000020C5E79404002098040020D00400207D
:10500000A00400202DE9F05F07460C464FF0000891
:105010004FF0FF3A17B9544800F0B4B814B95248E9
:10502000801FF9E7206910B94F48801EF4E7206817
:1050300010B94D48C01EEFE7A0881F2802DD4A487E
:10504000001FE9E7A0881F2806D148492068884248
:1050500002D04548001FDFE74549464A891AE06803
:10506000884202D940481930D6E7E06810B94FF4B9
:105070003470E0600821E068FEF74EFFE060E06811
:10508000B0F5987F02D23848401EC5E7FAF7FEFF18
:10509000834612E038484068A0F128053649486840
:1050A000FFF776F805F128013448FFF755F8314845
:1050B000E968FFF7D2F80020E8602F48FFF77AF898
:1050C0000028E7D02D48FFF775F828B1DFF898A041
:1050D0000AF10A0A00BF41E028484068A0F128050B
:1050E00026494868FFF754F85846FAF7D7FFD5F82D
:1050F000108008221F48E168FFF7A5F806465EB950
:10510000FAF7C4FF834605F128011C48FFF724F88D
:10511000DFF86CA000BF21E032464046E1680BF0AA
:1051200089FD8146C5F80090A0682862EE60E068BD
:10513000A8600020A861E8610220A880A088E8801B
:10514000206868614FF0FF30E8630020A8642069A0
:10515000686200202865C7F800805DE75846FAF7C6
:105160009DFF504658E7000007020002EDF60008D8
:1051700000FC0020E82E0020C0040020B80400201D
:105180000002000330BCBDE8C09F000070B50446BB
:105190000AF0D4FA08B1184870BD1848008808B160
:1051A0001748F9E714B900F011F9F5E7FAF76EFFBF
:1051B00005461449096801F128000AF041FB11482D
:1051C0000068808820F004000E49096888800D4935
:1051D000086821460BF0A2F90A480068808840F070
:1051E00020000849096888802846FAF757FFFFF72A
:1051F000C3FB0020D0E700000D020003A004002044
:105200000E020002980400202DE9F04106464FF0FE
:10521000FF3751480068864202D15048BDE8F0810E
:105220004F480068864202D14C480D30F6E74D48A1
:105230000068864202D349480D38EFE7FAF726FFA7
:105240008046C6EBC60000EB40004749096801EB09
:105250008004A58805F0010018B1404F0A3F00BF47
:1052600074E005F0100028B14048008810B100201B
:105270003E49088005F0040040B104F128000AF01E
:10528000DFFAA08820F00400A08009E005F0080003
:1052900010B905F4005018B104F12800FEF778FFAA
:1052A00005F0600010B120460BF072FCA08820F0E1
:1052B0000200A080A08840F00100A0804FF0FF30E5
:1052C000E0630020A0640AF03DFB283828494860CC
:1052D000207900F0100038B304F128012548FEF7CA
:1052E00095FF20480068C0EBC00000EB40001E495D
:1052F000096801EB80001E490860084600680661E5
:10530000A088096888801A49E0680968C860184957
:10531000606A096848620120A0804046FAF7BEFE34
:105320000AF0F0FC002079E70120A08004F12801B8
:105330001148FEF711FF1148E168FEF78EFF0020CB
:10534000E0604046FAF7AAFE002067E74046FAF719
:10535000A5FE384662E70000A804002014020002FF
:10536000AC040020A404002094040020A004002029
:1053700098040020C0040020B8040020E82E00207B
:1053800070B504460F480068844201D3002070BD08
:10539000C4EBC40000EB40000B49096801EB800539
:1053A000FAF774FE0646287900F0010020B1304675
:1053B000FAF774FE0020EAE73046FAF76FFE686AF3
:1053C000E5E70000A40400209404002070B5002448
:1053D00020480068006920490968884201D31F48B5
:1053E00070BD1C480068007900F0040008B9002076
:1053F000F6E7FAF74BFE054616490968C8880AF031
:105400008DFA0446012C17D91249096801F12800C8
:10541000FEF7BEFE0F480068808840F004000D498A
:10542000096888800B4A1268D1880A4A126802F11A
:1054300028000AF02BFA05E02846FAF72FFE074865
:105440000930CDE72846FAF729FEFFF795FA002044
:10545000C6E7000098040020A40400200702000210
:10546000014903C970470000E004002000B587B07F
:1054700000BF2448C06C40F004002249C8640846BC
:10548000C06C00F00400019000BF00BF00BF0846E0
:10549000C06C40F08000C8640846C06C00F080001A
:1054A000019000BF00BF00BF0846C06C40F0010083
:1054B000C8640846C06C00F00100019000BF00BF46
:1054C00000BF0846C06C40F00200C8640846C06CCB
:1054D00000F00200019000BF00BF00224FF4005115
:1054E0000948FBF7CDFF4FF40050029001200390D4
:1054F00000200490059002A90348FBF7D3FE07B0F3
:1055000000BD0000001002400008004810B513481C
:10551000134908604FF4827048604FF4004110480E
:1055200081604FF4E061C1600221016101214161AC
:10553000490281610021C1610162416281620721EA
:10554000C1620021016308214163FDF7E1F818B150
:10555000472104A001F010FC10BD000000380040FD
:10556000600C00202E2E5C5372635C7370692E6396
:105570000000000000B593B02648274908604F207E
:10558000486000212448816040F2E731C160002179
:10559000016141618161FDF7BDFA18B12F211FA0A2
:1055A00001F0EAFB1C48FDF7A7FC18B134211BA051
:1055B00001F0E2FB60200C9040F2F3100D9000200F
:1055C0000E900F9010901190129000220CA912488A
:1055D000FDF7D8FB18B1402110A001F0CDFB002051
:1055E000019002900390049005904FF400500690B3
:1055F000002007900B9001A90748FDF701FA18B1A8
:105600004D2106A001F0B8FB0348FDF79FFB13B046
:1056100000BD000000440140442000202E2E5C48C4
:10562000617264776172655C4535335F5354315CF8
:105630004535335F5354312E6300000000B587B009
:105640000020039004900590069000900190029035
:105650004FF080401A4908604F20486000211848E8
:1056600081604EF65F21C160002101618161FDF71B
:1056700051FA18B12B2113A001F07EFB4FF480509A
:10568000039003A90E48FDF7D1FA18B130210DA0FF
:1056900001F072FB00200090029069460848FDF777
:1056A00003FA18B1362107A001F066FB002211466B
:1056B0001C20FBF720FF1C20FBF70DFF07B000BDEF
:1056C000C40C00202E2E5C48617264776172655CA8
:1056D00074696D5C74696D2E6300000010B50E482E
:1056E0000E4908604FF4E130486000210B488160AA
:1056F000C16001610C21416100218161C1610162D0
:105700000020064948620846FDF762FD18B15B219A
:1057100003A001F031FB10BD00380140F80A002061
:105720002E2E2F5372632F75736172742E630000D7
:1057300010B50E480E4908604FF41650486000211D
:105740000B488160C16001610C21416100218161D0
:10575000C16101620020064948620846FDF738FD34
:1057600018B1862103A001F007FB10BD00480040DE
:10577000E80B00202E2E2F5372632F757361727405
:105780002E6300002DE9F0412DED028B82B004461E
:10579000884658A14046FAF75DFD0646032130468B
:1057A00000F0AEF80546FF2D40D0701901A900F0B9
:1057B000CBF807469DF80400801CC1B20A2000F017
:1057C000B8F8B7FBF0F020609DF80400801CC1B26F
:1057D0000A2000F0AEF8B7FBF0F100FB117000EE0C
:1057E000100AB8EE408A05210A2000F0A2F82168CC
:1057F000484300EE100AF8EE400A9DF80400C0F19C
:105800000500C1B20A2000F094F800EE100AB8EECC
:10581000400A20EE080A9FED391AC0EE011A30EE58
:10582000A10ABCEEC00A10EE100A20600421304626
:1058300000F066F80546FF2D01D0705D207105214E
:10584000304600F05DF80546FF2D44D0701901A9DF
:1058500000F07AF807469DF80400801CC1B20A20C7
:1058600000F067F8B7FBF0F044F8050F9DF804006E
:10587000801CC1B20A2000F05CF8B7FBF0F100FB1D
:10588000117000EE100AB8EE400AB0EE408A052111
:105890000A2000F04EF82168484300EE100AF8EEA6
:1058A000400A9DF80400C0F10500C1B20A2000F0D2
:1058B00040F800EE100AB8EE400A20EE080A9FED0C
:1058C0000F1AC0EE011A30EEA10ABCEEC00A10EEAB
:1058D000100A44F805090621304600F011F8054683
:1058E000FF2D01D0705D607202B0BDEC028BBDE88F
:1058F000F0810000244750524D43000000007042E8
:105900000246134610E010782A2805D01078202887
:1059100002DB10787A2801DDFF20704710782C28F0
:1059200001D1481EC1B2521C0029ECD1D01AC0B21C
:10593000F3E710B50246012000E050430B1EA1F131
:105940000104E1B2F9D110BD2DE9F34F81B0074652
:105950003C4600200090834681460026804628E091
:1059600020782D2802D148F00208641C20782C28C9
:1059700002D020782A2800D11CE020782E2803D1DC
:1059800048F00108641C09E02078392802DC2078FE
:10599000302803DA4FF0000900260BE008F0010080
:1059A00010B1701CC6B203E009F1010000F0FF095C
:1059B000641CD5E700BF08F0020000B17F1C002581
:1059C0000EE0A9F10100401BC1B20A20FFF7B1FFB0
:1059D000795D3039009A00FB01200090681CC5B247
:1059E0004D45EEDB052E00DD0526029806700025EC
:1059F0000EE0701E401BC1B20A20FFF79AFF09F1AA
:105A000001012944795C303900FB01BB681CC5B237
:105A1000B542EEDB31460A20FFF78BFF009901FB10
:105A200000BA08F0020008B1CAF1000A504600F0BE
:105A300000B81EBCBDE8E08F70B504460D461646A2
:105A400029462046FAF706FC08B1002070BD4FF049
:105A5000FF30FBE710B54B6A33B1B2F1406F03D0B2
:105A60008B6A5B1E046823618B69002B76D00B6AFE
:105A7000E3B38B680468E361CB69FBB1D1E90B3414
:105A800023434C6B23434C6A23438C8A43EA84436D
:105A90000C6923430C6A2343CC682343CC6923431A
:105AA0008C6923430C682343134304686361B2F198
:105AB000406F02D04B680468A361BEE0D1E90B34AB
:105AC00023434C6B23434C6A23438C8A43EA84432D
:105AD0000C6923430C6A2343CC6923438C69234319
