:020000040800F2
:1000000010040020A1010008DB0C0008750C00089A
:10001000D90C00080D020008F10D000800000000D6
:100020000000000000000000000000005D0D00085E
:100030000F02000800000000DD0C00085F0D000842
:10004000BB010008BB010008BB010008BB010008A0
:10005000BB010008BB010008BB010008BB01000890
:10006000BB010008BB010008BB010008BB01000880
:10007000BB010008BB010008BB010008BB01000870
:10008000BB010008BB010008BB010008BB01000860
:10009000BB010008BB010008BB010008BB01000850
:1000A000BB010008BB010008BB010008BB01000840
:1000B000BB0100080000000000000000BB010008B8
:1000C000BB010008BB010008BB010008BB01000820
:1000D000BB010008BB010008BB010008BB01000810
:1000E000BB010008BB010008000000000000000088
:1000F0000000000000000000000000000000000000
:1001000000000000BB01000800000000BB01000867
:100110000000000000000000BB010008BB01000857
:10012000BB010008BB010008BB010008BB010008BF
:10013000BB010008000000000000000000000000FB
:10014000BB010008BB010008BB0100080000000063
:10015000BB010008BB010008BB010008BB0100088F
:10016000BB010008BB010008BB0100080000000043
:10017000BB010008BB0100080000000000000000F7
:10018000BB010008BB010008BB010008DFF80CD070
:1001900000F02AF800480047310E00081004002043
:1001A0000648804706480047FEE7FEE7FEE7FEE711
:1001B000FEE7FEE7FEE7FEE7FEE7FEE7AD0D00081F
:1001C0008D010008D2B201E000F8012B491EFBD2DC
:1001D00070470022F6E710B513460A460446194652
:1001E000FFF7F0FF204610BD064C074D06E0E06823
:1001F00040F0010394E8070098471034AC42F6D36E
:10020000FFF7C8FF980E0008B80E0008FEE7704719
:1002100070B5044600F0E2F80546601C02D00448C0
:100220004068044400F0DAF8401BA042FAD370BDE5
:10023000000000202DE9F84FDFF864B100234FF0F3
:10024000010C4FF0030A4FF00F090BF1040EA0E070
:100250000CFA03F6324072D04C68022C01D0122CFA
:100260000ED1DC0800EB8408D8F820405D07EF0EC3
:1002700009FA07F5AC430D69BD402543C8F8205085
:1002800007685D0091F804800AFA05F408F0030895
:10029000A74308FA05F848EA0708C0F800804F6845
:1002A000012F05D0022F03D0112F01D0122F11D111
:1002B0008768D1F80C80A74308FA05F848EA0708D0
:1002C000C0F808804768B7430E79C6F300169E4011
:1002D0003E434660C668A6438C68AC403443C46065
:1002E0004C68E40054D52F4C256E45F00105256679
:1002F000246E23F0030504F0010400942A4C2E1907
:10030000B4689D072F0F09FA07F5AC43B0F1904F81
:1003100004D0264DA84203D1012512E0002510E0AB
:10032000234DA84201D102250BE0224DA84201D164
:10033000032506E0204DA84202D1042501E027E074
:100340000725BD402543B560DBF800405D464E689B
:100350009443F60300D514432C60DEF80040754644
:100360004E689443B60300D514432C600C4D0835F9
:100370002C684E689443F60200D514432C60084D57
:100380000C352C684E689443B60200D514432C609B
:100390005B1C0A6832FA03F47FF45AAF00F00EB81F
:1003A0000004014000100240000001400004004829
:1003B00000080048000C00480010004818BCBDE8C8
:1003C000E08F42690A4201D08162704781617047C3
:1003D0000AB18161704781627047000001488068FE
:1003E0007047000000000020024881684268114404
:1003F000816070470000002010B50024032000F049
:1004000063F8002000F008F808B1012401E000F0D2
:1004100025F8204610BD000070B50E4E054600249C
:10042000706898B14FF47A71B1FBF0F00A4909682D
:10043000B1FBF0F000F00AFC40B9102D06D200220A
:100440002946501E00F020F8356000E001242046C7
:1004500070BD0000000000200C000020094808B515
:10046000016E41F001010166016E01F00101009190
:10047000816D41F080518165806D00F08050009069
:1004800008BD000000100240F0B40E4B1B680C4683
:10049000C3F30223C3F10705042D00D90425191D58
:1004A000072901D2002300E0DB1E012606FA05F130
:1004B000491E214099409E40761E16403143F0BCB3
:1004C00000F097BC0CED00E0064900F00702086858
:1004D0004FF6FF03184040EA0220034A1043086029
:1004E000704700000CED00E00000FA051649B0F579
:1004F000007F0868C0F3412009D0022805D00868B1
:1005000020F4C06040F4806008600020704701283B
:10051000FBD0086820F4C06040F4007008600B480D
:100520003222006850430A4AB0FBF2F0401C00E05F
:10053000401E4A69520501D50028F9D14869400595
:10054000E3D5032070470000007000400C0000203D
:1005500040420F000248006800F4C060704700008D
:10056000007000402DE9F0470F46050058D0404E7E
:10057000306800F00700B84209D2306820F0070068
:1005800038433060306800F00700B84248D128781E
:10059000384CC0072CD06868032811D0022812D02C
:1005A000216898B1490500293ADAA16821F00301D0
:1005B0000143A160FFF712FF804641F2883910E045
:1005C00021688901EFE721688903ECE78907EAE7F9
:1005D000FFF704FFA0EB0801494502D90320BDE85D
:1005E000F087A068696800F00C00B0EB810FEFD1D4
:1005F0002878800705D5A068A96820F0F000084396
:10060000A060306800F00700B8420BD9306820F0D5
:10061000070038433060306800F00700B84201D06E
:100620000120DCE72878400705D5A068E96820F4B8
:10063000E0600843A0602878000706D5A068296913
:1006400020F4605040EAC100A06000F01BF8A168EF
:10065000094AC1F30311515C01F01F01C840074969
:10066000086007480068BDE8F047FFF7D5BE000006
:100670000020024000100240580E00080C0000202C
:100680000000002070B52549002318468A68CC6810
:1006900012F00C0204F00306214C4FEA640509D065
:1006A0000C2A05D0042A32D0082A00D1284670BD71
:1006B000012E10D10B681B0704D4D1F89430C3F37A
:1006C000032302E00B68C3F30313164E56F82330DE
:1006D000DAB10C2AEBD1C86800F00300022818D068
:1006E000032818D01846CA68CB68C2F30212C3F3B5
:1006F00006234343521CB3FBF2F2C868C0F34160C7
:10070000401C4000B2FBF0F070BD184670BD2046A2
:1007100070BD2046E7E72846E5E7000000100240EC
:100720000024F400680E00082DE9F84304006ED0A0
:10073000FD4DA86800F00C06E86800F0030720787B
:10074000C00663D576B10C2E01D1012F0AD0A06965
:100750000028286878D040F001002860FFF73EFEAE
:1007600080465BE02868800702D5A0690028DED0BB
:10077000216A2868000703D5286800F0F00004E02B
:10078000D5F89400F02202EA1010814216D90846EA
:1007900000F0A6FA00283AD1286840F00800286046
:1007A0002868216A20F0F000084328606868E16941
:1007B00020F47F4040EA0120686015E0286840F09E
:1007C000080028602868216A20F0F00008432860AB
:1007D0006868E16920F47F4040EA01206860206A8F
:1007E00000F07EFA0028D6D1FFF74CFFA968CF4A67
:1007F000C1F30311515C01F01F01C840CC490860EE
:10080000CC480068FFF708FE00287DD12DE0C9E044
:10081000FFF7E4FDA0EB0800022876D828688007DF
:10082000F6D5286840F0080028602868216A20F082
:10083000F000084328606868E16920F47F4040EADE
:100840000120686011E0FFE720F001002860FFF759
:10085000C5FD804606E000BFFFF7C0FDA0EB080025
:100860000228DAD828688007F6D42078C00740D05C
:10087000082E18D00C2E01D1032F14D06068B0F5CB
:10088000803F17D0B0F5A02F286817D020F4803013
:100890002860286820F4802028606068E0B1FFF7B5
:1008A0009DFD804614E02868800322D560680028FA
:1008B00078D01EE0286840F48030EDE740F48020D6
:1008C0002860F7E7FFF78AFDA0EB08006428A4D8AA
:1008D00028688003F6D50CE0FFF780FD804605E030
:1008E000FFF77CFDA0EB0800642896D828688003F9
:1008F000F6D4207880073BD5042E11D00C2E01D1E0
:10090000022F0DD0E06801E064E1B8E0002828681B
:100910001ED040F480702860FFF760FD07460CE0B1
:10092000286840050CD5E0680028C1D008E000BF69
:10093000FFF754FDC01B022893D828684005F7D55F
:100940006868217C20F0F85040EA016068600FE0A0
:1009500020F480702860FFF741FD074605E000BFE6
:10096000FFF73CFDC01B0228B1D828684005F7D42A
:100970002078000729D560690028D5F8940012D0A6
:1009800040F00100C5F89400FFF728FD074604E099
:10099000FFF724FDC01B022871D8D5F8940080070A
:1009A000F6D512E04CE120F00100C5F89400FFF705
:1009B00015FD074605E000BFFFF710FDC01B02282C
:1009C0005DD8D5F894008007F6D42078400766D526
:1009D000A86D0027C00008D4A86D40F08050A8651D
:1009E000A86D012700F08050009053480168C905A8
:1009F00012D40168814641F480710160FFF7EEFC7A
:100A0000804605E0FFF7EAFCA0EB0800022836D894
:100A1000D9F80000C005F5D5A068012816D0052832
:100A2000D5F8900017D020F00100C5F89000D5F857
:100A3000900020F0040000BFC5F89000A06841F2CB
:100A40008839C0B1FFF7CAFC80460FE0D5F89000A6
:100A500040F00100F0E740F00400C5F89000F5E731
:100A6000FFF7BCFCA0EB0801494508D8D5F8900079
:100A70008007F5D50EE0FFF7B1FC804606E07CE08C
:100A8000FFF7ACFCA0EB0801494576D8D5F89000FB
:100A90008007F5D41FB1A86D20F08050A86520789C
:100AA000800628D5606A0028D5F8980012D040F05A
:100AB0000100C5F89800FFF791FC074605E000BF6C
:100AC000FFF78CFCC01B022857D8D5F89800800788
:100AD000F6D510E020F00100C5F89800FFF77EFC85
:100AE000074604E0FFF77AFCC01B022871D8D5F84E
:100AF00098008007F6D4A06AF0B30C2E71D00228BB
:100B0000286820F0807028601AD02868000103D47B
:100B1000E86820F00300E860E86808490840E860F9
:100B2000FFF75CFC044657E000100240580E000836
:100B30000C0000200000002000700040FFFFEEFECF
:100B4000FFF74CFC064604E0FFF748FC801B022838
:100B50003FD828688001F7D4F4E90B016FF00F0249
:100B600002EB01110843218A4908520402EB41516A
:100B7000A26841EA022101E064E02AE00843217D05
:100B80004FF07E42490802EB41610843217B40EA75
:100B9000C160E9682C4A11400843E860286840F0C9
:100BA00080702860E86840F08070E860FFF716FC0D
:100BB000044604E0FFF712FC001B022809D828684D
:100BC0008001F7D53EE000BFFFF708FC001B0228BC
:100BD00002D90320BDE8F88328688001F4D431E00D
:100BE000FFE70128F6D0E868E26A00F003019142CD
:100BF00026D1216B00F070020901103991421FD1FA
:100C0000626B00F4FE41B1EB022F19D194F8382049
:100C100000F07841B1EBC26F12D1A18F00F4C00295
:100C200049084905A1F50011914209D194F84010F5
:100C300000F0C06049084906A1F10071814201D06D
:100C40000120C7E70020C5E78C809D0110B5401E3C
:100C5000B0F1807F01D3012010BD4FF0E02460612E
:100C60000F21601700F0C5F80020A0610720206167
:100C7000002010BDFEE7000030B587B014216846A3
:100C8000FFF7A7FA1248C16C41F00401C164C16CBE
:100C900001F004010591C16C41F08001C164C06C98
:100CA0000C4D00F080004FF40054059000222146C6
:100CB0002846FFF78DFB012000210094CDE90101BA
:100CC000039169462846FFF7B5FA07B030BD00002A
:100CD0000010024000080048FEE77047704700001F
:100CE000F8B51C4D06460024A86DC00002D5FFF7DC
:100CF00031FC0DE0A86D40F08050A865A86D00F0B3
:100D000080500090FFF726FCA96D21F08051A96565
:100D1000B0F5007F04D0802E07D94FF003040AE01D
:100D2000802E08D9A02E01D804E001D1022402E0CF
:100D3000702E00D101240848016821F007012143E9
:100D40000160006800F00700A04201D00120F8BD5A
:100D50000020F8BD00100240002002407047FFF75D
:100D600043BB10B596B044216846FFF732FA142110
:100D700011A8FFF72EFA0120009000040024019032
:100D80000A946846FFF7D0FC0F2011900220CDE9AD
:100D900012041494002111A81594FFF7E3FB4FF4FB
:100DA0000070FFF7A3FB16B010BD00000D480168EE
:100DB00041F4700101600C48016841F001010160DB
:100DC000002181600268094B1A4002608214C260EF
:100DD000026822F48022026081610249C0038039E6
:100DE0000860704788ED00E000100240FFFFF6EA5F
:100DF000FEE70907090E002804DB00F1E02080F877
:100E00000014704700F00F0000F1E02080F8141D7E
:100E1000704702E008C8121F08C1002AFAD17047C3
:100E20007047002001E001C1121F002AFBD170476A
:100E3000FFF7E2FAFFF795FFFFF71EFF054D4FF4AE
:100E40000054C820FFF7E4F921462846FFF7B9FA15
:100E5000F7E7000000080048000000000000000064
:100E60000102030406070809A0860100400D0300E3
:100E7000801A060000350C0040420F0080841E00DE
:100E800000093D0000127A000024F40000366E01D3
:100E90000048E801006CDC02B80E000800000020E9
:100EA00010000000120E0008C80E000810000020FC
:100EB00000040000220E00081000000001000000E5
:080EC0000000000000093D00E4
:040000050800018D61
:00000001FF
